:020000040800F2
:100000006042002045020008B15700087D44000806
:10001000AD570008DD1700088163000800000000EC
:10002000000000000000000000000000AD0100081A
:10003000371B000800000000F1010008315D0008D6
:100040005F0200085F0200085F0200085F0200080C
:100050005F0200085F0200085F0200085F020008FC
:100060005F020008391B00085F0200085F020008F9
:100070005F0200085F0200085F0200085F020008DC
:100080005F0200085F020008E11600085F02000836
:100090005F0200085F0200085F0200085F020008BC
:1000A0005F020008ED5D00085F0200085F020008C3
:1000B000FD5D00085F0200085F020008914400082F
:1000C000814400085F0200085F0200085F02000828
:1000D0005F020008716300085F0200085F02000809
:1000E0005F0200085F0200085F02000800F002F8EB
:1000F00000F04DF80AA090E8000C82448344AAF175
:100100000107DA4501D100F042F8AFF2090EBAE872
:100110000F0013F0010F18BFFB1A43F0010318473B
:100120000C9C00002C9C0000103A24BF78C878C1B9
:10013000FAD8520724BF30C830C144BF04680C60ED
:10014000704700000023002400250026103A28BF35
:1001500078C1FBD8520728BF30C148BF0B60704739
:10016000662909F07084642900F0F280732900F098
:100170002085002070471FB500F074FD04000020AA
:10018000002108F0C5FFE0601FBD10B510BD00F0F4
:1001900069FE1146FFF7EFFF06F0D2F900F087FE87
:1001A00003B4FFF7F2FF03BC00F0CAFE224B19684C
:1001B0000868B0E8F00F80F30988BFF36F8F4FF045
:1001C000000080F311884EF00D0E70470000000013
:1001D00006480068006880F3088862B661B6BFF31D
:1001E0004F8FBFF36F8F00DF00BF00BF08ED00E04F
:1001F000EFF30980BFF36F8F0F4B1A6820E9F00F00
:10020000106008B54FF0500080F31188BFF34F8F96
:10021000BFF36F8F07F03CFE4FF0000080F31188B2
:10022000BDE8084019680868B0E8F00F80F3098855
:10023000BFF36F8F704700BF64000020EFF30580AD
:10024000704700000948804709480047FEE7FEE77D
:10025000FEE7FEE7FEE7FEE7FEE7FEE7FEE7FEE776
:1002600004480549054A064B70470000E95D00084F
:10027000ED000008603C002060420020603E00204D
:10028000603E00200FB41CB5084B06AA7B446946AB
:100290000090059800F063FC04460020694600F0D9
:1002A00071FC20461CBC5DF814FB0000F508000042
:1002B00070B5044685690068C10601D5302600E0A6
:1002C0002026C00707D070BDD4E9012130469047F1
:1002D000206A401C20626D1EF6D570BD70B50446C4
:1002E00085690078C00707D170BDD4E901212020BD
:1002F0009047206A401C20626D1EF6D570BD70B517
:100300000C460546012A05D02878800600D5EA6902
:10031000002302E0012305E05B1C934202D2E05C73
:100320000028F9D1A869E618C01AA861286A1844FB
:1003300028622846FFF7BCFF04E0D5E9012114F844
:10034000010B9047B442F8D32846FFF7C7FF70BDB2
:100350002DE9F0410646002410687529314616A59E
:1003600010D0AFF30080002802DA404213A507E066
:1003700031688A0701D512A502E0490704D511A505
:10038000012401E0AFF3008000210A2206F12407D6
:1003900009E0B0FBF2FCB0FBF2F302FB1C003030D2
:1003A00078541846491C0028F3D123462A46304683
:1003B000BDE8F04100F065B9000000002D0000002C
:1003C0002B000000200000002DE9F0474FF0000A4C
:1003D00089460446C0F820A02046E16888470028E6
:1003E00076D0252806D0D4E901219047206A401C08
:1003F0002062F1E7E168204600268847C4F81CA087
:1004000005460027C4F818A02A2D09D0284605F073
:10041000F2FF38B304EB8708303DC8F8185019E0F4
:1004200059F8041B204604EB87029161E168884774
:10043000012F054618D1E069002820DA26F02006B1
:100440001DE0D8F8180000EB800005EB40003038C4
:10045000C8F818002046E1688847054605F0CBFF3C
:100460000028EED1012F0AD02E2D08D12046E168B8
:1004700088477F1C0546022F46F02006C4DBA06992
:10048000002803DA404246F00106A061F00701D0DF
:1004900026F010066C2D0AD0682D08D04C2D39D0CE
:1004A0006A2D35D0742D35D07A2D33D016E0E16821
:1004B0002F4620468847B84205460AD16C2F27D0E0
:1004C0004FF48060E168064320468847054605E012
:1004D00027E06C2F1AD04FF4807006430DB3A5F1BE
:1004E0004100192802D8203546F400664A462946BC
:1004F000204626604E46FFF733FE80B101280BD020
:10050000F61D26F0070000F1080965E74020E4E742
:100510008020D7E70020D5E706F104095CE72846EC
:1005200061E7206ABDE8F08730B505460B462A46EC
:1005300013F8014B12F8010B08B1A042F8D01CB11E
:10054000002802D06D1CF1E7284630BD40EA0103C7
:10055000024630B59B0710D14FF0013400E008C2CD
:1005600008C91D1B9D4315EAC41FF8D013F0FF01F5
:1005700002F8011B0DD01B0AF8E711F8013B002B14
:1005800002F8013B05D011F8013B002B02F8013BBA
:10059000F3D130BD032A40F2308010F0030C00F09C
:1005A000158011F8013BBCF1020F624498BF11F8AD
:1005B00001CB00F8013B38BF11F8013BA2F1040266
:1005C00098BF00F801CB38BF00F8013B11F00303DE
:1005D00000F0F382083AC0F0088051F8043B083A72
:1005E00051F804CBA0E80810F5E7121D5CBF51F8E4
:1005F000043B40F8043BAFF30080D20724BF11F85E
:10060000013B11F801CB48BF11F8012B24BF00F8C2
:10061000013B00F801CB48BF00F8012B704702F006
:10062000FF0343EA032242EA024200F0FABA4FF023
:10063000000200B5134694469646203922BFA0E832
:100640000C50A0E80C50B1F12001BFF4F7AF09073E
:1006500028BFA0E80C5048BF0CC05DF804EB89002F
:1006600028BF40F8042B08BF704748BF20F8022B72
:1006700011F0804F18BF00F8012B7047704770478A
:1006800070472DE9F0470D4699469246044600F121
:1006900024080168880604D5E06921F01001216072
:1006A00000E00120A84201DD471B00E00027A1690E
:1006B0007A1902EB0900081AA0612078C00602D45A
:1006C0002046FFF7F5FD002608E0D4E901211AF8DD
:1006D00006009047206A401C761C20624E45F4DBE1
:1006E0002078C0060AD52046FFF7E2FD06E0D4E9EF
:1006F000012130209047206A401C2062381EA7F15B
:100700000107F4DC07E0D4E9012118F8050090475F
:10071000206A401C2062281EA5F10105F3DC20465A
:10072000FFF7DCFD2078000602D50220BDE8F08747
:100730000120FBE770472DE9FF4F0C461E464FF0A6
:10074000FF378BB0D2E90001DDF860800A908A465D
:10075000C1F30A5505B93D46002108464FF0000097
:10076000BAF1000F00F4400005DA00EB80004FF40E
:10077000400101EA50004FEA9059B9F1010F00DD44
:10078000B9460A9850EA4A000ED044F61050A5F235
:10079000FF3545432F14B8F1000F1ED07542291EB6
:1007A0001EDDC9F100021CE0B8F1010F4FF000009E
:1007B00001D0302103E0F24305E02154401CB04257
:1007C000FBDB30460022002121540B99C1F8088040
:1007D000C1E900200FB0BDE8F08FBD1B6D1CDEE746
:1007E0004A4600DA694206A800F0C6FA06AB93E86A
:1007F000070003AB83E8070050460A9900F0A7FB07
:100800008DE80700A0F500501F3800900398002DD8
:100810000ADD42F21F014A460844002303A903905F
:10082000684600F010FE09E0A0F500504A461F3867
:10083000002303A90390684600F01AFE8DE8070024
:100840000004000C03D04FF0FF30410800E01046D8
:10085000B8F1000F03D00022009215461EE0751E6D
:1008600005D400F003FA303262556D1EF9D5B34657
:100870000122084302D000227F1C04E020783028A7
:1008800001D100227F1E002A099784D01DE0112D7E
:1008900007DA00F0EBF9303262556D1C50EA0102C4
:1008A000F5D1084302D00098C8B10EE00021681EBF
:1008B00005E0235C625C63542254401E491C814263
:1008C000F7DBAB46A81B401E0990002004F80B0084
:1008D0000B98099AC0F80880C0E9002B7AE7112626
:1008E0004FF0000857E72DE9F04F88460446D21D27
:1008F00022F0070191B0D1E90001CDE90A0105F02C
:1009000041FD02460B98C00F01D02D2007E0206862
:10091000810701D52B2002E0202101EAC000032A33
:10092000099001D0072A05DB03464146204600F026
:10093000E3F90BE12078800601D5E06900E00620AC
:10094000B8F1650F814606D0B8F1660F18D0B8F13E
:10095000670F70D131E00020B9F1110F009001DB79
:10096000112301E009F101030AAA01A90CA8FFF76C
:10097000E2FEDDE90C70002609F10105834647E03F
:1009800001204B4600904FF000470AAA01A90CA88D
:10099000FFF7D1FEDDE90DB00C995D46002610B9D8
:1009A00009F101000D18B9EB050003D4C0F1FF36C1
:1009B00009F10105A5EB09002BE0B9F1010F01DAFE
:1009C0004FF001090020B9F1110F0090484601DDF8
:1009D000112300E003460AAA01A90CA8FFF7ABFE09
:1009E000DDE90C704D4600268346207800070AD4C6
:1009F000AB4500DA5D4601A8012D04DD411911F86F
:100A0000011C302907D04F4502DA17F1040F04DA30
:100A1000012082460FE06D1EEEE7002F02DCED1B89
:100A20003E4403E0781CA84200DD7D1CB81B00F1A9
:100A3000010A4FF000472078000703D4AA4501DBE4
:100A40004FF0FF3A0021B7F1004F0DF143088DF848
:100A5000431024D002202B23002F01DA7F422D23C4
:100A60000A21021EA0F1010000DC5FB197FBF1FC3E
:100A700097FBF1F201FB1C7C17460CF1300C08F8D7
:100A800001CDEEE7A8F1010003702188090501D529
:100A9000452100E06521A0F1010800F8011C09983A
:100AA0000FA9A1EB0807FF1D00B10120411901EBBF
:100AB000EA70A1693844081A401EA0612078C00677
:100AC00002D42046FFF7F4FB099828B1D4E90121AC
:100AD0009047206A401C20622078C00622D520461C
:100AE000FFF7E6FB1EE0002E04DBB34502DD01A8A4
:100AF000805D00E03020D4E901219047206A401C4D
:100B00002062761CAAF101005FEA000A0AD100F017
:100B1000A9F8C0680168405CD4E901219047206AC7
:100B2000401C2062281EA5F10105DCDC07E0D4E9A9
:100B3000012118F8010B9047206A401C2062381EE2
:100B4000A7F10107F3DC2046FFF7C8FB032011B033
:100B500041E6000001694A1C02610878704700B54F
:100B60008FB0CDE901310021059105497944CDE9E6
:100B7000031011466846FFF727FC0FB000BD0000C8
:100B8000E5FFFFFF0A6802F8010B0A60704710B525
:100B9000436913B1AFF3008001E0FFF7B0FB012020
:100BA00010BD127800F124010A7000224A7001225F
:100BB000EDE711684FF0FF32E9E710B5203AC0F0D9
:100BC0000B80B1E81850203AA0E81850B1E818504E
:100BD000A0E81850BFF4F5AF5FEA027C24BFB1E88B
:100BE0001850A0E8185044BF18C918C0BDE81040FC
:100BF0005FEA827C24BF51F8043B40F8043B08BF05
:100C00007047D20728BF31F8023B48BF11F8012BCB
:100C100028BF20F8023B48BF00F8012B70474FF077
:100C200000020429C0F0128010F0030C3FF401AD63
:100C3000CCF1040CBCF1020F18BF00F8012BA8BFC7
:100C400020F8022BA1EB0C01FFF7F3BC5FEAC17C9B
:100C500024BF00F8012B00F8012B48BF00F8012B3E
:100C60007047000000487047203C002030B5B0F1CC
:100C70000A024FEA900E71F100034EEA817EB0EB5A
:100C80000E0061EB91014FEA101E4EEA017E10EB5F
:100C90000E0041EB11114FEA102E4EEA016E10EBDF
:100CA0000E0041EB11214FEA104E4EEA014E10EBBF
:100CB0000E0041EB1141401841F100014FEAD00014
:100CC00040EA41704FEAD10110EB80054FEA810400
:100CD00044EA907444EB01046D1944EB0404521B84
:100CE000A3414FF0000348BF0A3200D530BD401C7D
:100CF00041F1000130BD00002DE9F0411F460446DE
:100D000003260168072A01F4006004DB08B116A578
:100D100005E016A503E008B115A500E015A521F032
:100D200010002060A069C01EA0610FB1401EA0612C
:100D30002046FFF7BDFA4FB1D4E90121384690476C
:100D4000206A401C2062C01C206206E0206AFAE78C
:100D5000D4E9012115F8010B9047761EF8D2204600
:100D6000FFF7BCFABDE8F0814E414E006E616E00A7
:100D7000494E4600696E66002DE9F04781461646E9
:100D80008AB0354878440DC88DE80D003248784463
:100D9000801C03AC0DC884E80D0041F69B3008446C
:100DA000372190FBF1F290FBF1F5A5F1800501FBF5
:100DB00012041B3C02D56442012000E00020DFF851
:100DC00098A080460027FA44AAF1BE0A0EE0E00788
:100DD0000AD03246684607EB470101230AEB81013E
:100DE00000F046FB8DE8070064107F1C002CEED15C
:100DF000194F7F44AE3F19E0E80715D007EB041008
:100E00000DF1180A90E80E008AE80E00C068F04262
:100E100001D1981908903246012306A903A800F0D1
:100E200027FB03AB83E807006D10641C002DE3D1A2
:100E30004FF0010332466946B8F1000F03A802D013
:100E400000F001FB01E000F013FBC9E90001C9F863
:100E500008200AB0BDE8F087D08E00000048704737
:100E6000003C00207546FFF7F9FFAE4605006946D5
:100E7000534620F00700854618B020B5FFF7F0F97B
:100E8000BDE820404FF000064FF000074FF000088B
:100E90004FF0000B21F00701AC46ACE8C009ACE80C
:100EA000C009ACE8C009ACE8C0098D46704710B570
:100EB0000446AFF300802046BDE81040FFF770B94C
:100EC0004FF0013C50F8042B51F8043B9A4221D1D9
:100ED000A2EB0C03934313EACC1317D150F8042B65
:100EE00051F8043B9A4215D1A2EB0C03934313EA49
:100EF000CC130BD150F8042B51F8043B9A4209D182
:100F0000A2EB0C03934313EACC13DBD04FF00000A9
:100F1000704700BFD01A01BAB1FA81F101F018018F
:100F200022FA01F0CB40C1F12001DBB2C0B2C01AFD
:100F30002CFA01F3D11A914311EAC311E6D170479B
:100F400001491820ABBEFEE72600020070475FEAA9
:100F5000400C08BF91F0000F4FEA8C234FEAC122EA
:100F600043EA51514FEA1C5018BF00F5F0404FEAD8
:100F7000300018BF41F000415FEA6C5C00F029804E
:100F8000BCF1FF3F08BF40F080407047130C06BF24
:100F900012044FF0100C4FF0000C130E04BF12029D
:100FA0000CF1080C130F04BF12010CF1040C930F89
:100FB00004BF92000CF1020CD30F04BF52000CF1DD
:100FC000010C11464FF00002A0F11F00A0EB0C0035
:100FD000704711F0004F08BF704731F000413FF4F7
:100FE000D5AF0B0C06BF09044FF0100C4FF0000CEE
:100FF0000B0E04BF09020CF1080C0B0F04BF090112
:101000000CF1040C8B0F04BF89000CF1020CCB0F08
:1010100004BF49000CF1010CCCF12003A0EB0C0043
:1010200022FA03F302FA0CF241EA030100F1010093
:10103000704720F07F4C80EA030023F07F47ACEB41
:10104000070303F57C5300F0004003F1FF032DE993
:1010500080494FEA154B09B44FEA144325EA0B4E79
:1010600024EA03480FF2042606EB132749083E78CA
:101070005FEA320203FB0667C7F5000707FB06F6C7
:101080004FEA54374FEAD64606F1020607FB066CD4
:10109000CCF1005C4FEA1C472CEA074C07FB06F436
:1010A0000CFB06F504EB15464FEA961634BF0020FC
:1010B0004FF000404FEAD13706FB07FC4FEA1C4CCB
:1010C0000CFB0BF7D21B03FB0CF761EB07010CFBCE
:1010D0000EF7B0EB074072EB17420CFB08F734BF7A
:1010E000A2EB0742B2EB074261EB17414FEA0C4417
:1010F0004FEA910706FB07FC4FEA1C4C0CFB0BF771
:10110000B0EBC74072EB573203FB0CF734BFA2EBD6
:10111000C742B2EBC74261EB57310CFB0EF7B0EBA5
:10112000C70072EB57720CFB08F734BFA2EBC70283
:10113000B2EBC70261EB5771039F4FEA816141EA4D
:10114000921104EBCC044FEAD1374FEA826206FBDE
:1011500007FC42EA90124FEA80604FEA1C4C0CFBFD
:101160000BF7D21B03FB0CF761EB07010CFB0EF72F
:10117000B0EB074072EB17420CFB08F734BFA2EB51
:101180000742B2EB074261EB17414FEA8C554FEA39
:10119000910704EB9C2406FB07FC4FEA1C4C0CFB5C
:1011A0000BF7B0EBC74072EB573203FB0CF734BFC1
:1011B000A2EBC742B2EBC74261EB57310CFB0EF713
:1011C000B0EBC70072EB57720CFB08F734BFA2EB11
:1011D000C702B2EBC70261EB577115EB4C254FEA22
:1011E000816141EA92114FEA82624FEAD13742EAC5
:1011F000901206FB07FC44F100044FEA80604FEABE
:101200001C4C0CFB0BF7D21B03FB0CF761EB07012B
:101210000CFB0EF7B0EB074072EB17420CFB08F724
:1012200034BFA2EB0742B2EB074261EB174115EB6B
:101230001C154FEA813141EA92414FEA823242EA7B
:1012400090424FEA80304FEA0C7644F1000448EABD
:1012500003434EEA0B484FF0000EB2EB080C71EB63
:10126000030724BF624639464EEB0E0E4FF0000BCB
:101270000018524149414BEB0B0BB2EB080C71EBE0
:1012800003077BF1000B24BF624639464EEB0E0E7E
:101290004FF0000B0018524149414BEB0B0BB2EBE6
:1012A000080C71EB03077BF1000B24BF6246394643
:1012B0004EEB0E0E51EA020718BF46F0010616EB80
:1012C0000E7655F1000254F1000103D5BDE8890105
:1012D000BDE80088BDE88901BDE80048B619524163
:1012E00041EB0101A3F10103704780807F7E7D7C8B
:1012F0007B7A7978777676757473727171706F6EA8
:101300006E6D6C6C6B6A6A69686867666665646452
:10131000636362616160605F5F5E5E5D5D5C5C5BDC
:101320005B5A5A595958585757565655555554544B
:10133000535352525251515050504F4F4F4E4E4DA9
:101340004D4D4C4C4C4B4B4B4A4A4A4949494848F5
:101350004847474747464646454545444444444335
:1013600043434342424242414141002B9C4630D4D8
:1013700077002BD01CB54FEA370703B44FF01000AD
:101380004FF01001BAF1000F06D0BCF1000FDCBF26
:1013900040F0080040F008014FF000000FBCBDE82D
:1013A00010400BF1010BBBF1010F08BF5FEA1707FB
:1013B00022BF12F1010211F101014FF0004143F18E
:1013C000000300F0004043EA00007047F9D35708DB
:1013D000D0E746EA064613F1400F4FEA16461FDDF6
:1013E00013F1200FDFBF16430A46002120335B4272
:1013F000BED0C3F1200746EA064602FA07F74FEAD5
:10140000164646EA0706C3F1200722FA03F201FA5C
:1014100007F721FA03F14FF0000342EA0702A7E7BA
:1014200046EA020646EA06464FEA164646EA01063C
:10143000BCBF46EA0646360C4FF000034FF00002F0
:101440004FF0000194E72DE9804C9A46934670B422
:1014500091E8380007C831EA400C48BF34EA430C31
:1014600003D5FFF7E6FDFFF780FFF0BCBDE8008C79
:101470002DE9804C9A46934670B491E8380007C82D
:1014800010F0804F08BF13F0804F03D100F005F833
:10149000FFF76BFFF0BCBDE8008C20F07F4780EACF
:1014A000030023F07F4C07EB0C03A3F57C5300F003
:1014B0000040A3F1FE0392F0000F00F0B38095F01E
:1014C000000F00F077802DE901494FEA11404FEA03
:1014D000144621EA004800FB06FC24EA064708FB04
:1014E00006F607FB08F800FB07F718EB06484CEB7D
:1014F000164C4FEA124B18EB07484FEA15464CEBD7
:10150000174022EA0B4E0BFB06FC25EA06470EFBB2
:1015100006F607FB0EFE0BFB07F71EEB064E4CEB29
:10152000164C4FF000061EEB074E4CEB174B18EB1A
:101530000B0840F1000018EB0E0B58EB000840F1CF
:1015400000008F1A4FF000013CBFC943661B14BF57
:10155000B5EB040C00213CBFC943F61B4FEA17440E
:101560004EEA8E0E27EA04454FEA1C4704FB076249
:101570002CEA074C05FB07F70CFB05F604FB0CFCFB
:1015800016EB074642EB174216EB0C4642EB1C42A9
:101590001BEB060658EB0202414146EA9E0601D5C6
:1015A000BDE80189B619524141EB0101A3F10103E4
:1015B000BDE801894FEA14454FEA114724EA054680
:1015C00021EA074C05FB07F406FB07F70CFB06F1C5
:1015D00005FB0CFC11EB074144EB17444FEA1247A3
:1015E00011EB0C4144EB1C4422EA074C05FB07F2CB
:1015F00006FB07F70CFB06F605FB0CFC16EB074693
:1016000042EB174216EB0C4642EB1C456A1854F1AC
:10161000000148BF7047B619524141EB0101A3F1E7
:101620000103704795F0000F37D04FEA11424FEA9F
:10163000144721EA024624EA074C02FB07F106FBA5
:1016400007F70CFB06F402FB0CFC14EB074441EB20
:1016500017414FEA154714EB0C4441EB1C4125EAB6
:10166000074C02FB07F506FB07F70CFB06F602FB2F
:101670000CFC16EB074645EB174516EB0C4645EB05
:101680001C42121951F1000148BF7047B61952416E
:1016900041EB0101A3F1010370474FEA14454FEA02
:1016A000114724EA054621EA074C05FB07F106FB32
:1016B00007F70CFB06F24FF0000605FB0CFC12EBE3
:1016C000074241EB174112EB0C4251EB1C4148BF62
:1016D0007047921841EB0101A3F10103704700002C
:1016E00010B5024800F097FB10BD0000DC000020A0
:1016F00070B5044600252068806800F0010018B32A
:101700002068806820F001002168886001F0D0F82E
:10171000054613E001F0CCF8401B02280ED92068E2
:10172000806800F0010048B1A06A40F01000A0629B
:10173000E06A40F00100E062012070BD206880682E
:1017400000F001000028E5D10020F6E738B5044696
:101750000025002000902068806800F0010078BB20
:101760002068806840F0010021688860194800689E
:101770001949B0FBF1F0009002E00098401E009083
:1017800000980028F9D101F093F8054619E001F01E
:101790008FF8401B022814D92068806800F00100EF
:1017A00078B9A06A40F01000A062E06A40F0010041
:1017B000E06200BF002084F8240000BF012038BD93
:1017C00005E02068806800F001000028DFD00020DC
:1017D000F5E700006000002040420F0000BFFEE778
:1017E0002DE9F04180460E4617461C46404600F063
:1017F00035F900250EE00221404600F018F8404679
:1018000000F09FF8B84204D104B125600020BDE883
:10181000F081AD1CB542EED340F20110F7E770B590
:1018200004460D462946606804F02AFB70BD70B579
:1018300004460D462946606804F031FB70BD2DE971
:10184000FC4781460E46484600F01AF900214846FA
:1018500000F068F914214846FFF7E1FF01214846EE
:1018600000F060F900231A4623214846FFF7B8FF2D
:1018700005461DB140F20310BDE8FC87002301229C
:1018800058214846FFF7ACFF054615B14FF482706A
:10189000F2E700231A465C214846FFF7A1FF054600
:1018A00015B140F20510E7E7002436E001AB012254
:1018B0003A214846FFF794FF054615B14FF483706F
:1018C000DAE76B4600224A214846FFF789FF0546C2
:1018D00015B140F20710CFE72046E11704EB517134
:1018E000C1F3C707E11704EB5171C910A4EBC101A3
:1018F00001F0FF08B8F1000F01D10020F055DDE93B
:101900000001884201D9012000E00020C8F1070150
:101910008840F15D0843F055641C282CC6DB00208C
:10192000AAE72DE9F04104460D4617461E46002061
:101930002080E76026816560204600F0A1F8BDE8C0
:10194000F08170B504462189E06800F0A3FF0546E8
:10195000284670BD2DE9FF5F82460020029003906B
:10196000504600F08DF80121504600F0DBF802A946
:101970005046FFF764FF8346BBF1000F06D0AAF87C
:1019800000B01FFA8BF004B0BDE8F09F002005E026
:1019900002A90A5C0AF110010A54401C0528F7DB71
:1019A0009DF808009DF8091008449DF80A100844A5
:1019B0009DF80B100844C0B29DF80C10884204D06A
:1019C0004FF48170AAF80000DDE79DF80B1001F0DC
:1019D0007F0007F0E5FD804600221F4B07F088FCE2
:1019E00004460D469DF80A0007F0F1FD0646224622
:1019F0002B4607F0D5FBCDE9000107F09FFBCAF8A5
:101A000018009DF80B0000F0800028B1DAF81800EB
:101A100080F00040CAF818009DF8090007F0D7FDD3
:101A200000220D4BCDE9000107F062FC06460F468F
:101A30009DF8080007F0CBFD044632463B4607F010
:101A4000AFFB804607F07AFBCAF81C000020AAF81A
:101A5000000000BF97E70000000024401FB50446C7
:101A600000200090019002900390208900900020B7
:101A7000019002906946E06800F07CFD1FBD000007
:101A800010B586B0044600200290039004900590A3
:101A900000BF2348806940F004002149886108465E
:101AA000806900F00400019000BF00BF00BF08463D
:101AB000806940F0080088610846806900F00800ED
:101AC000019000BF00BF00BF0846806940F01000D1
:101AD00088610846806900F01000019000BF00BFD7
:101AE00000BF0846806940F0200088610846806990
:101AF00000F02000019000BF00BF21890122E068B2
:101B000000F0D0FE20890290112003900020049064
:101B10000220059002A9E06800F02CFD06B010BD7F
:101B20000010024070B504460D4621892A46E0683F
:101B300000F0B8FE70BD704710B5082000F00CFD35
:101B400010BD72B600BFFEE710B50A4600210023A3
:101B50001BE00478302C0ADB0478392C07DC01EB1D
:101B6000810461000478303C214401230CE00478B6
:101B7000202C09D004783B2C05D1012B02D11180F7
:101B80000023002102E001E0401CE2E700BF10BD9D
:101B9000F8B5044600260020009000BF94F8240009
:101BA000012801D10220F8BD012084F8240000BFE3
:101BB0002046FFF79DFD0646002E6CD1A06A20F45A
:101BC000885040F00200A062022001F0BFFA3549BF
:101BD0000968B1FBF0F04000009002E00098401E60
:101BE000009000980028F9D12046FFF7AFFD20684B
:101BF000806840F008002168886000F059FE0546C2
:101C000016E000F055FE401B0A2811D920688068B4
:101C100000F0080060B1A06A20F0020040F010005F
:101C2000A06200BF002084F8240000BF0120BAE7B2
:101C30002068806800F008000028E2D120688068F1
:101C400040F004002168886000F032FE054616E08E
:101C500000F02EFE401B0A2811D92068806800F091
:101C6000040060B1A06A20F0020040F01000A06201
:101C700000BF002084F8240000BF012093E7206803
:101C8000806800F004000028E2D1A06A20F0020081
:101C900040F00100A06200BF002084F8240000BFD3
:101CA000304680E7600000207047000038B50246EB
:101CB00000230020009000BF92F82400012801D1E9
:101CC000022038BD012082F8240000BF48680728A0
:101CD00012D21068406B0C79641E04EB84051F243B
:101CE000AC40A0430D796D1E05EB85050C68AC403A
:101CF00020431468606327E048680D2812D21068FA
:101D0000006B0C79E41F04EB84051F24AC40A04356
:101D10000D79ED1F05EB85050C68AC402043146878
:101D2000206311E01068C06A0C790D3C04EB840557
:101D30001F24AC40A0430D790D3D05EB85050C68D3
:101D4000AC4020431468E06208680A2812D3106887
:101D5000C0680C780A3C04EB44050724AC40A0435F
:101D60000D780A3D05EB45058C68AC4020431468AE
:101D7000E0600FE0106800690C7804EB440507246C
:101D8000AC40A0430D7805EB45058C68AC40204382
:101D9000146820610868102802D00868112827D12B
:101DA000174C1068A0421ED11068806800F4000033
:101DB000F0B91068806840F400001468A0600868FA
:101DC000102815D10F4800680F4CB0FBF4F000EB61
:101DD00080004000009002E00098401E00900098B3
:101DE0000028F9D104E0906A40F0200090620123BD
:101DF00000BF002082F8240000BF184661E7000001
:101E0000002401406000002040420F00704701465E
:101E10000868C06C704710B504462068406800F040
:101E2000200020282FD12068006800F0020002283E
:101E300029D1A06A00F0100018B9A06A40F400701F
:101E4000A0622068806800F46020B0F5602F13D194
:101E5000207B88B92068406820F020002168486015
:101E6000A06A20F48070A062A06A00F4805018B9C3
:101E7000A06A40F00100A0622046FFF7C7FF6FF0A4
:101E80001200216808602068406800F08000802807
:101E90003BD12068006800F00400042835D1A06A16
:101EA00000F0100018B9A06A40F40050A062206849
:101EB000806800F4E040B0F5E04F0DD02068406845
:101EC00000F48060D0B92068806800F46020B0F52C
:101ED000602F13D1207B88B92068406820F08000F3
:101EE00021684860A06A20F48050A062A06A00F4D3
:101EF000807018B9A06A40F00100A0622046FFF788
:101F0000D3FE6FF00C00216808602068406800F084
:101F1000400040280FD12068006800F0010050B157
:101F2000A06A40F48030A062204600F0A7F86FF06D
:101F300001002168086010BD2DE9F041044600272A
:101F400000250026A84614B90120BDE8F081A0684C
:101F500010B1207D00B100BFA06A30B90020E0625E
:101F600084F82400204600F08BF82046FFF7C0FBE1
:101F70000746A06A00F01000002873D1002F71D12D
:101F8000A06A20F4885040F00200A062E169606815
:101F90000843217B40EA41000643A068B0F5807FFA
:101FA00002D0A068012802D14FF4807000E0002028
:101FB0000543207D012811D1207B38B9A069401E3E
:101FC0004FF4006141EA4030054307E0A06A40F069
:101FD0002000A062E06A40F00100E06220684068F2
:101FE00020F46940284321684860206880682149BE
:101FF0000840304321688860A068B0F5807F02D037
:10200000A068012802D14FF4807000E00020B0F5F4
:10201000807F03D1208A401E4FEA00582068C06AA2
:1020200020F4700040EA08002168C86220688068D7
:1020300011490840B04208D10020E062A06A20F0B7
:10204000020040F00100A06211E0A06A20F002004E
:1020500040F01000A062E06A40F00100E062012759
:1020600005E0FFE7A06A40F01000A06201273846B3
:102070006BE70000FDF7E1FFFE0E1FFF7047000059
:1020800010B586B00446002002900390049005909D
:102090001849206888422AD100BF1748806940F457
:1020A0000070154988610846806900F4007001904D
:1020B00000BF00BF00BF0846806940F0040088618F
:1020C0000846806900F00400019000BF00BF0120B5
:1020D00002900320039002A9084800F04BFA002266
:1020E0000621122000F0E0FF122000F0CDFF06B024
:1020F00010BD000000240140001002400008014013
:10210000F8B504460D46002600200090002700F098
:10211000CFFB06462068806800F4807050B1A06A4A
:1021200040F02000A06200BF002084F8240000BF1F
:102130000120F8BD2068406800F4807020BB206852
:10214000C06A00F47000F8B917E0681CA8B125B1A6
:1021500000F0AEFB801BA8420FD92068006800F099
:10216000020050B9A06A40F00400A06200BF002045
:1021700084F8240000BF0320DBE72068006800F03B
:1021800002000028E1D053E0022000F0DFFF3849D0
:102190000968B1FBF0F021680969364A114091B92C
:1021A0002168C9689211114069B921680969324AE8
:1021B000114031B92168C9689211114009B914213F
:1021C00017E0292115E0216809692B4A114021B93E
:1021D0002168C9689211114041B121680969274AF3
:1021E000114029B92168C968114009B9542100E09A
:1021F000FC2100FB01F718E0681C98B125B100F044
:1022000057FB801BA8420DD90098B8420AD2A06A99
:1022100040F00400A06200BF002084F8240000BF4A
:10222000032086E70098401C00900098B842E3D352
:102230006FF0120021680860A06A40F40070A0628C
:102240002068806800F46020B0F5602F0DD1207BFD
:1022500058B9A06A20F48070A062A06A00F480508F
:1022600018B9A06A40F00100A062002061E70000F8
:1022700060000020244992249224491249922400AB
:1022800070B50446002500BF94F82400012801D150
:10229000022070BD012084F8240000BF2046FFF713
:1022A00055FA0546002D77D1A06A40F201218843F6
:1022B00040F48070A0623C492068884208D13B48C5
:1022C000006800F4702008B9012002E0002000E05E
:1022D000012078B1A06A20F48010A06220684068D4
:1022E00000F4806000B3A06A20F4005040F48050F5
:1022F000A06219E0A06A40F48010A0622B49091F77
:102300002068884203D028492068884204D12748A1
:10231000006800F4806000E0002028B1A06A20F48A
:10232000005040F48050A062A06A00F4805020B1B8
:10233000E06A20F00600E06201E00020E06200BFF9
:10234000002084F8240000BFC01E216808602068B7
:10235000806800F46020B0F5602F16D11249206823
:10236000884208D11148006800F4702008B90120A3
:1023700002E0002000E0012038B12068806840F4CD
:10238000A000216888600CE006E02068806840F4C6
:1023900080102168886004E000BF002084F82400D9
:1023A00000BF284675E700000028014004240140D2
:1023B00070B50446002500BF94F82400012801D11F
:1023C000022070BD012084F8240000BF2046FFF7E2
:1023D0008FF905462DB9A06A20F4885040F001001D
:1023E000A06200BF002084F8240000BF2846E8E770
:1023F0000146002291F82100022808D004208863B9
:1024000000BF002081F8200000BF0120704708684D
:10241000006820F00E000B6818600868006820F063
:1024200001000B68186091F8403001209840CB6B98
:102430005860012081F8210000BF002081F82000B1
:1024400000BF1046E2E7000070B50446002594F88E
:102450002100022803D00420A063012548E0206861
:10246000006820F00E00216808602068006820F0F5
:102470000100216808601F492068884201D10120BD
:1024800026E01C4914312068884201D110201FE049
:10249000184928312068884201D1801518E0154973
:1024A0003C312068884201D1801411E0114950313B
:1024B0002068884202D14FF4803009E00D49643130
:1024C0002068884202D14FF4801001E04FF0807004
:1024D000084908394860012084F8210000BF002025
:1024E00084F8200000BF606B10B12046616B884704
:1024F000284670BD08000240014691F8210070474F
:1025000070B5044600F0D4F906462546681C10B1A3
:1025100004480078054400BF00F0CAF9801BA842B7
:10252000FAD370BD5C00002010B5044600F0C0F97D
:1025300007490968401AB0F57A7F07D300F0B8F967
:10254000034908600348006804F038FA10BD000031
:10255000500000202C00002010B5044604480068FC
:10256000204020B1024804602046FFF7DDFF10BD87
:10257000140401402DE9F8470346002294466EE119
:102580004FF0010808FA02F4D1F8008008EA0400CC
:10259000A0427DD1DFF8DCA2D1F80480A8EB0A09C3
:1025A000D0453AD014DCB8F1030F50D009DCB8F1B3
:1025B000000F31D0B8F1010F1CD0B8F1020F49D192
:1025C00020E0B8F1110F18D0B8F1120F42D11EE07F
:1025D000B9F5881F25D006DCB9F5803F20D0B9F5C4
:1025E000801F37D11AE0B9F5001F18D0B9F5041FC4
:1025F00030D117E0D1F80CC02DE0D1F80C8008F1F3
:10260000040C28E0D1F80C8008F1080C23E0D1F884
:102610000C8008F10C0C1EE000BF00BF00BF00BF23
:1026200000BF00BFD1F80880B8F1000F02D14FF011
:10263000040C0BE0D1F80880B8F1010F03D14FF082
:10264000080C1C6102E04FF0080C5C6103E04FF0E5
:10265000000C00E000BF00BFFF2801D8984601E051
:1026600003F104084646FF2802D84FEA820803E037
:10267000A2F108084FEA88084746D6F800804FF0D4
:102680000F0909FA07F928EA09080CFA07F900E026
:1026900088E048EA0908C6F80080D1F8048008F00C
:1026A0008058B8F1805F7DD100BFDFF8CC81D8F8C9
:1026B000188048F00108DFF8C091C9F81880C846B2
:1026C000D8F8188008F00108CDF8008000BF00BFDE
:1026D0004FEAB9384FEA920958F829504FEA827800
:1026E0004FEA18794FF00F0808FA09F825EA0805AB
:1026F000DFF88881434502D14FF0000816E0DFF88B
:102700008081434502D14FF001080FE0DFF874816A
:10271000434502D14FF0020808E0DFF86C814345E1
:1027200002D14FF0030801E04FF004084FEA82792C
:102730004FEA197908FA09F848EA0505DFF84C81EB
:102740004FEA920948F82950D1F8048008F48038FB
:10275000B8F5803F0AD1DFF83881D8F8008048EA20
:102760000008DFF82C91C9F8008009E0DFF820812B
:10277000D8F8008028EA0008DFF81491C9F8008032
:10278000D1F8048008F40038B8F5003F10D1DFF824
:10279000008108F10408D8F8008048EA0008DFF852
:1027A000F09000E05AE009F10409C9F800800DE05A
:1027B000DFF8DC8008F10408D8F8008028EA000877
:1027C000DFF8CC9009F10409C9F80080D1F8048041
:1027D00008F48018B8F5801F0ED1DFF8B48008F136
:1027E0000808D8F8008048EA0008DFF8A49009F14A
:1027F0000809C9F800800DE0DFF8948008F10808A6
:10280000D8F8008028EA0008DFF8849009F1080968
:10281000C9F80080D1F8048008F40018B8F5001F4A
:102820000ED1DFF86C8008F10C08D8F8008048EA77
:102830000008DFF85C9009F10C09C9F800800DE090
:10284000DFF84C8008F10C08D8F8008028EA00086E
:10285000DFF83C9009F10C09C9F80080521CD1F84E
:10286000008028FA02F8B8F1000F7FF489AEBDE8C5
:10287000F88700000000111000100240000801401D
:10288000000C01400010014000140140080001400C
:1028900000040140024693680B400BB1012000E0A8
:1028A000002070470AB1016101E00B040361704729
:1028B00001480068704700005400002070477047CE
:1028C0002DE9F84F0446206847692068D0F8048055
:1028D000002594F83E90C7F3002070B1C8F30020A3
:1028E00058B145F001056FF4807021684861206897
:1028F000006840F4004021680860C7F3402040B100
:10290000C8F3002028B145F002056FF4007021687B
:102910004861C7F3802070B3C8F3002058B3CA469B
:10292000B4F82AB094F83D60206B0090BAF1200F03
:102930000FD1BBF1000F0CD1212E06D0292E04D0CF
:10294000282E06D10098212803D1204602F0E4FB6E
:1029500011E06FF480602168486145F00405B9F129
:10296000100F02D0B9F1400F05D12068006840F483
:10297000007021680860C7F3C02040B1C8F3002090
:1029800028B145F008056FF40060216848612DB159
:10299000206C28432064204601F00CFEBDE8F88F2F
:1029A0002DE9F04705464FF0000928684668D5F83C
:1029B0002CA095F83E7095F83D80102F01D0402F47
:1029C00075D12868D0F818902868446904F001008F
:1029D00060B9BAF52A0F02D0BAF12A4F01D101200D
:1029E00000E00020012801D1BDE8F08704F00100DB
:1029F00048B1C6F3402030B1284601F051FD2846C9
:102A000002F043FAB7E0C4F3C00030B1C6F340208F
:102A100018B1284602F0E4F8ADE0C4F3400030B14C
:102A2000C6F3402018B1284602F0EFF8A3E0C9F33E
:102A3000800040B32868406800F40060B0F5006F83
:102A4000E0D0C4F3C01048B1C6F3802030B1C4F365
:102A5000800018B9284602F057F88CE0C4F38000D3
:102A60000028CFD0C6F340200028CBD0B8F1210FEA
:102A700003D1284601F0F8FF7DE0402F7BD12846A6
:102A800002F052FA77E02868406800F40060B0F580
:102A9000006F70D0C4F3801050B1C6F3802038B1FD
:102AA000C4F3800020B9284601F00CFF63E00BE07E
:102AB000C4F3800000285ED0C6F3402000285AD01E
:102AC000284601F06CFE56E0286C10B12868446975
:102AD00004E02868D0F8189028684469C4F34000DE
:102AE00060B1C6F3402048B1286C10B12868D0F816
:102AF00018904946284602F0D6FA3CE0C4F300108C
:102B000030B1C6F3402018B1284602F055FB32E040
:102B1000B8F1210F02D0B8F1290F16D1C4F3C010BB
:102B200048B1C6F3802030B1C4F3800018B92846FC
:102B300002F096FA1FE0C4F38000E0B1C6F3402033
:102B4000C8B1284602F07FFA15E0C4F3801048B1FE
:102B5000C6F3802030B1C4F3800018B9284602F0D3
:102B60004FFA08E0C4F3800028B1C6F3402010B14A
:102B7000284602F038FA00BF36E7704770B50446C1
:102B80000CB9012070BD94F83D0028B9002084F8EC
:102B90003C00204600F098F9242084F83D0020688D
:102BA000006820F00100216808602068006840F497
:102BB0000040216808602068006820F40040216817
:102BC000086000F0D5FC05465C496068884206D87C
:102BD0005B48854201D2012007E0002005E059480A
:102BE000854201D2012000E00020012800D1C9E780
:102BF0005548B5FBF0F62068406820F03F003043B0
:102C0000216848604D496068884201D8701C07E01F
:102C10004FF4967070434FF47A71B0FBF1F0401CA2
:102C20002168096A21F03F0108432168086243498D
:102C30006068884214D8681E61684900B0FBF1F0F2
:102C4000401CC0F30B00042801D204203DE0681EA4
:102C500061684900B0FBF1F0401CC0F30B0034E0A8
:102C6000A06838B9681E616801EB4101B0FBF1F062
:102C7000401C0AE0681E616801EBC10202EB011111
:102C8000B0FBF1F0401C40F48040C0F30B0008B9E9
:102C900001201AE0A06848B9681E616801EB410193
:102CA000B0FBF1F0401CC0F30B000CE0681E616843
:102CB00001EBC10202EB0111B0FBF1F0401CC0F3CB
:102CC0000B0040F4804040F400402168C9694CF694
:102CD000FF72914308432168C861D4E907010843A2
:102CE0002168096821F0C001084321680860D4E91F
:102CF000031008432168896848F2FF329143084372
:102D000021688860D4E9050108432168C96821F079
:102D1000FF0108432168C8602068006840F0010096
:102D20002168086000202064202084F83D000020F5
:102D3000206384F83E0000BF24E70000A086010065
:102D400080841E0000093D0040420F00704770471C
:102D5000704700002DE9F8430446894616461F4691
:102D6000DDF82080FFF7A4FD054694F83D002028FB
:102D70007ED11923012251492046009502F010FB13
:102D800010B10220BDE8F88300BF94F83C00012890
:102D900001D10220F6E7012084F83C0000BF206842
:102DA000006800F0010028B92068006840F00100C8
:102DB000216808602068006820F4006021680860CD
:102DC000212084F83D00102084F83E00002020647B
:102DD00066626785608D20853948E0622B464246F1
:102DE0004946204601F0E0FD08B10120CAE700BFD6
:102DF0000020009020684069009020688069009061
:102E000000BF00BF44E02A464146204602F096FB40
:102E100050B1206C042805D12068006840F400708F
:102E2000216808600120ADE7606A007821680861C8
:102E3000606A401C6062608D401E6085208D401E6F
:102E4000208520684069C0F3800070B1208D60B19A
:102E5000606A007821680861606A401C6062608D69
:102E6000401E6085208D401E20852A46414600E098
:102E700022E0204602F066FA50B1206C042805D109
:102E80002068006840F4007021680860012079E73C
:102E9000208D0028B7D12068006840F400702168B8
:102EA0000860202084F83D00002084F83E0000BF28
:102EB00084F83C0000BF65E7022063E702001000D1
:102EC0000000FFFF7047704710B586B00446002031
:102ED00002900390049005901D492068884235D1E6
:102EE00000BF1C48806940F008001A498861084604
:102EF000806900F00800019000BF00BFC020029070
:102F0000122003900320059002A91348FFF732FB1B
:102F100000BF1048C06940F400100E49C86108465F
:102F2000C06900F40010019000BF00BF002205211D
:102F30001F2000F0B9F81F2000F0A6F8002205219C
:102F4000202000F0B1F8202000F09EF806B010BD5F
:102F50000054004000100240000C014070477047D0
:102F6000034800680349097808440149086070472C
:102F7000540000205C00002010B50848006840F0B4
:102F8000100006490860032000F0CCF80F2000F084
:102F900007F800F055F8002010BD000000200240A6
:102FA000F0B587B0044600260027002500BF1F4863
:102FB000806940F400601D4988610846806900F41A
:102FC0000060009000BF00BF01A902A800F0A8FAAD
:102FD00000F0DEFA06461648B6FBF0F0471E15482C
:102FE0001549086040F2E7311348C160476000218D
:102FF00001618160816100F09BFD054695B90E4835
:1030000000F020FE05466DB9192000F03DF8102CA7
:1030100007D200222146192000F046F80748046034
:1030200000E00125284607B0F0BD00000010024076
:1030300040420F00002C0140C00200205800002038
:1030400008B500BF0F48806940F001000D49886154
:103050000846806900F00100009000BF00BF00BF7B
:103060000846C06940F08050C8610846C06900F059
:103070008050009000BF00BF00220F21901E00F082
:1030800013F808BD0010024001460846002809DB7D
:1030900000F01F0301229A4043099B0003F1E02343
:1030A000C3F8002100BF70472DE9F05F80460D4650
:1030B0001646002703F07AF9074639462A46334672
:1030C00001F00700C0F1070ABAF1040F02D94FF06E
:1030D000040A01E0C0F1070AD14600F1040ABAF17E
:1030E000070F02D24FF0000A01E0A0F1030AD44614
:1030F0004FF0010A0AFA09FAAAF1010A0AEA020AD9
:103100000AFA0CFA4FF0010B0BFA0CFBABF1010BB6
:103110000BEA030B4AEA0B042146404603F04EF942
:10312000BDE8F09F00BF00F00702064B19684FF69C
:10313000FF031940044B0B4343EA0221014B196082
:1031400000BF70470CED00E00000FA052DE9F043E8
:1031500085B006463BA30FCB01AC0FC43DA0006871
:1031600000904FF00008002500270024A146012E02
:1031700030D0022E55D0102E5ED1374844680068FA
:1031800000F0807000B301A8C4F38341475C04F4ED
:10319000803070B130484068C0F340401DF8008076
:1031A00004F4803040B12D48B0FBF8F000FB07F587
:1031B00002E02B4807FB00F52748406800F4800038
:1031C000B0F5800F01D1A94603E068000321B0FBF0
:1031D000F1F932E02048046A04F44070B0F5807FD1
:1031E00005D104F0020010B14FF4004918E004F4D6
:1031F0004070B0F5007F07D11748406A00F0020028
:1032000010B149F640490BE004F44070B0F5407F3E
:1032100006D11148006800F4003008B14FF224498B
:103220000BE000F0B5F90C494968C1F38131491C44
:103230004900B0FBF1F900E000BF00BF484605B00F
:10324000BDE8F08302030405060708090A0B0C0D0C
:103250000E0F1010010200000010024000127A0050
:1032600000093D00F8B5044600260025207800F04E
:10327000010000286BD000274348C06900F080504F
:1032800070B900BF4048C06940F080503E49C861F5
:103290000846C06900F08050009000BF00BF0127C1
:1032A0003A48006800F48070B0B93848006840F4CB
:1032B000807036490860FFF7FBFA064606E0FFF724
:1032C000F7FA801B642801D90320F8BD2F48006855
:1032D00000F480700028F2D02B48006A00F440759A
:1032E0002DB3A08800F44070A84220D02648006A80
:1032F00020F440750120264908600020086022481B
:10330000056205F0010090B1FFF7D2FA064608E029
:10331000FFF7CEFA801B41F28831884201D90320A1
:10332000D3E71948006A00F002000028F0D01648E0
:10333000006A20F440706168084313490862012F55
:1033400004D10846C06920F08050C86100BF2078D1
:1033500000F00200022807D10B48406820F44040EA
:10336000A168084308494860207800F01000102840
:1033700007D10548406820F48000E168084302490D
:1033800048600020A1E700000010024000700040EB
:103390004004424270B504460D460CB9012070BD90
:1033A0005A48006800F00700A8420ED2574800684B
:1033B00020F007002843554908600846006800F0DF
:1033C0000700A84201D00120E9E7207800F00200C0
:1033D00002281DD1207800F00400042805D14C48B3
:1033E000406840F4E0604A494860207800F00800F6
:1033F000082805D14648406840F460504449486078
:103400004348406820F0F000A16808434049486004
:10341000207800F0010078B36068012806D13C48AC
:10342000006800F4003090B90120B8E76068022815
:1034300006D13748006800F0007040B90120AEE7BF
:103440003348006800F0020008B90120A7E73048BF
:10345000406820F00300616808432D494860FFF789
:1034600027FA064609E0FFF723FA801B41F288316C
:10347000884202D9032092E707E02548406800F01F
:103480000C006168B0EB810FEDD12048006800F0BE
:103490000700A8420ED91D48006820F00700284305
:1034A0001A4908600846006800F00700A84201D0E9
:1034B000012074E7207800F00400042807D11448A4
:1034C000406820F4E060E1680843114948602078D2
:1034D00000F00800082808D10D48406820F460502A
:1034E000216940EAC1000A49486000F061F80849D2
:1034F0004968C1F30311074A515CC8400649086096
:1035000006480068FFF74CFD002048E70020024015
:1035100000100240C49B00086000002058000020FA
:103520000F2202600D4A526802F0030242600B4A09
:10353000526802F0F0028260084A526802F4E062C7
:10354000C260064A526802F46052D2080261044A1C
:10355000126802F007020A60704700000010024083
:103560000020024001480068704700006000002011
:1035700000B5FFF7F7FF04494968C1F30221034A88
:10358000515CC84000BD000000100240D49B000800
:1035900000B5FFF7E7FF04494968C1F3C221034AB8
:1035A000515CC84000BD000000100240D49B0008E0
:1035B000F0B585B00FF26C0C9CE8E01001A8A0E813
:1035C000E0101CA52D680095002100220023002496
:1035D0000020194D696801F00C05F5B1042D02D0E9
:1035E000082D19D101E0154819E001ADC1F383465A
:1035F000AC5D01F4803555B10F4D6D68C5F34045A4
:103600001DF805200D4D6543B5FBF2F302E00C4DAE
:1036100004FB05F3184602E000BF084800BF00BFE6
:1036200005B0F0BD02030405060708090A0B0C0DDE
:103630000E0F1010010200000010024000127A006C
:1036400000093D00F8B504460CB90120F8BD20780A
:1036500000F00100002878D0F848406800F00C0025
:1036600004280CD0F548406800F00C00082811D15F
:10367000F248406800F48030B0F5803F0AD1EF484E
:10368000006800F4003000285FD0606800285CD13A
:103690000120DBE700BF6068B0F5803F06D1E74856
:1036A000006840F48030E549086028E0606858B957
:1036B000E248006820F48030E0490860084600686D
:1036C00020F4802008601AE06068B0F5A02F0BD1CC
:1036D000DA48006840F48020D8490860084600684D
:1036E00040F4803008600AE0D448006820F480305C
:1036F000D24908600846006820F48020086000BFB6
:10370000606888B1FFF7D4F8054606E0FFF7D0F807
:10371000401B642801D9032098E7C848006800F4DA
:1037200000300028F2D010E0FFF7C2F8054606E0AE
:10373000FFF7BEF8401B642801D9032086E7BF4885
:10374000006800F400300028F2D1207800F0020078
:10375000022857D1B948406800F00C0050B1B74872
:10376000406800F00C00082818D1B448406800F404
:10377000803098B9B148006800F0020020B120699B
:10378000012801D0012061E7AC48006820F0F80072
:10379000616940EAC100A949086033E02069E8B1E5
:1037A0000120A7490860FFF783F8054606E0FFF708
:1037B0007FF8401B022801D9032047E79F48006893
:1037C00000F002000028F2D09C48006820F0F800C9
:1037D000616940EAC1009949086013E000209849F6
:1037E0000860FFF765F8054606E0FFF761F8401B43
:1037F000022801D9032029E79048006800F0020060
:103800000028F2D1207800F0080008282DD1A06906
:10381000B8B101208B490860FFF74AF8054606E079
:10382000FFF746F8401B022801D903200EE7834822
:10383000406A00F002000028F2D0012001F0BAFF37
:1038400013E000207F490860FFF732F8054606E0E4
:10385000FFF72EF8401B022801D90320F6E677482F
:10386000406A00F002000028F2D1207800F0040045
:10387000042873D100277148C06900F0805070B9E6
:1038800000BF6E48C06940F080506C49C86108466E
:10389000C06900F08050009000BF00BF01276A4857
:1038A000006800F48070B0B96748006840F4807028
:1038B00065490860FEF7FCFF054606E0FEF7F8FFE5
:1038C000401B642801D90320C0E65F48006800F46B
:1038D00080700028F2D000BFE068012806D1574868
:1038E000006A40F001005549086227E0E06858B9D5
:1038F0005248006A20F00100504908620846006AF8
:1039000020F00400086219E0E06805280BD14B485C
:10391000006A40F00400494908620846006A40F025
:10392000010008620AE04548006A20F001004349AE
:1039300008620846006A20F00400086200BFE068E0
:10394000A0B1FEF7B5FF054609E0FEF7B1FF401B49
:1039500041F28831884202D9032077E622E03748D5
:10396000006A00F002000028EFD012E0FEF7A0FF8E
:10397000054608E0FEF79CFF401B41F28831884273
:1039800001D9032062E62D48006A00F002000028F9
:10399000F0D1012F05D12948C06920F08050274976
:1039A000C86100BFE069C8B32448406800F00C005B
:1039B000082860D0E069022848D100202049086624
:1039C000FEF776FF054606E0FEF772FF401B022871
:1039D00001D903203AE61948006800F00070002879
:1039E000F2D1206AB0F5803F07D11448406820F436
:1039F0000030A168084311494860D4E90801084330
:103A00000E49496821F4741108430C4948600120AB
:103A10000B490866FEF74CFF054607E03DE0FEF760
:103A200047FF401B022801D903200FE60348006826
:103A300000F000700028F2D02FE0000000100240DB
:103A400000004242800442420070004000201449BD
:103A50000866FEF72DFF054606E0FEF729FF401B2E
:103A6000022801D90320F1E50E48006800F000703B
:103A70000028F2D111E0E069012800D1E6E509480B
:103A8000466806F48031206A814204D106F4701140
:103A9000606A814201D00120D8E50020D6E500000F
:103AA00000004242001002407047704730B50246A5
:103AB0000B4600BF92F83C00012801D1022030BD26
:103AC000012082F83C0000BF022082F83D0010680F
:103AD00044681068816824F0700418680443106812
:103AE0004460104D1068A8420BD01068B0F1804FB0
:103AF00007D00D4D1068A84203D00C4D1068A842A5
:103B000005D121F0800158680143106881600120CF
:103B100082F83D0000BF002082F83C0000BF00BFDB
:103B2000CDE70000002C01400004004000080040E8
:103B300010B504460CB9012010BD94F83D0028B919
:103B4000002084F83C00204600F026F8022084F88B
:103B50003D00211D206802F059F9012084F846003B
:103B600000BF84F83E0001213F200155402001554F
:103B70004120015500BF00BF012084F842004320CE
:103B80000155442001554520015500BF012084F80E
:103B90003D000020D0E7000038B504462068B0F1B1
:103BA000804F15D100BF0B48C06940F001000949A2
:103BB000C8610846C06900F00100009000BF00BF66
:103BC000002205211C20FFF76FFA1C20FFF75CFA8A
:103BD00038BD000000100240014691F83D00012868
:103BE00001D001207047022081F83D00124B086887
:103BF00098420BD00868B0F1804F07D00F4B08688F
:103C0000984203D00E4B086898420CD1086880682F
:103C100000F00702062A0CD00868006840F0010096
:103C20000B68186005E00868006840F001000B6848
:103C300018600020D6E70000002C0140000400407E
:103C400000080040014691F83D00012801D0012004
:103C50007047022081F83D000868C06840F001000C
:103C60000B68D860124B086898420BD00868B0F116
:103C7000804F07D00F4B0868984203D00E4B08685E
:103C800098420CD10868806800F00702062A0CD020
:103C90000868006840F001000B68186005E00868DB
:103CA000006840F001000B6818600020D0E70000B9
:103CB000002C01400004004000080040014600BF05
:103CC0000868006A41F21112104050B90868006A91
:103CD0009210104028B90868006820F001000A68B6
:103CE000106000BF012081F83D00002070472DE9E1
:103CF000F04104460D4600BF94F83C00012802D173
:103D00000220BDE8F081012084F83C0000BF0220C1
:103D100084F83D002068866826F0770626F47F4602
:103D2000206886602868502833D00CDC202850D0CA
:103D300004DC00284BD0102851D149E0302849D06C
:103D400040284CD139E060282DD0702807D0B0F53C
:103D5000805F03D0B0F5005F41D10DE040E0D5E9D0
:103D600002136A68206802F0ACF82068866846F0A2
:103D700077062068866033E0D5E902136A68206818
:103D800002F09FF82068806840F4804021688860D5
:103D900026E0EA686968206802F0A7F850212068E8
:103DA00002F09AF81CE0EA686968206802F0B0F84E
:103DB0006021206802F090F812E0EA6869682068E3
:103DC00002F093F84021206802F086F808E000BF76
:103DD00000BF00BF2968206802F07EF800E000BF45
:103DE00000BF012084F83D0000BF002084F83C00A3
:103DF00000BF00BF85E7704710B504462068006922
:103E0000C0F34000D8B12068C068C0F34000B0B132
:103E10006FF0020021680861012020772068806926
:103E200000F0030018B12046FFF7E5FF05E020464B
:103E300000F0ADF8204600F0ABF8002020772068B5
:103E40000069C0F38000D8B12068C068C0F380006A
:103E5000B0B16FF00400216808610220207720686B
:103E6000806900F4407018B12046FFF7C4FF05E0F8
:103E7000204600F08CF8204600F08AF800202077D9
:103E800020680069C0F3C000D8B12068C068C0F3E2
:103E9000C000B0B16FF008002168086104202077ED
:103EA0002068C06900F0030018B12046FFF7A3FFA7
:103EB00005E0204600F06BF8204600F069F800208D
:103EC000207720680069C0F30010D8B12068C0686E
:103ED000C0F30010B0B16FF0100021680861082035
:103EE00020772068C06900F4407018B12046FFF7C1
:103EF00082FF05E0204600F04AF8204600F048F82E
:103F0000002020772068006900F0010058B1206887
:103F1000C06800F0010030B16FF001002168086155
:103F2000204600F037F820680069C0F3C01058B18F
:103F30002068C068C0F3C01030B16FF08000216805
:103F400008612046FFF7B0FD20680069C0F38010CB
:103F500058B12068C068C0F3801030B16FF04000E5
:103F600021680861204600F021F820680069C0F34C
:103F7000401058B12068C068C0F3401030B16FF0F5
:103F80002000216808612046FFF78FFD10BD7047B3
:103F90007047000010B5044603492068884201D1EB
:103FA000FEF7DEFF10BD0000002C01407047704797
:103FB000704700002DE9F84F044620680568206826
:103FC000C668206847694FF00009CA4605F00F0926
:103FD000B9F1000F0AD105F0200038B106F0200039
:103FE00020B1204602F049F8BDE8F88FB9F1000F82
:103FF00071D007F0010018B906F4907000286AD05B
:1040000005F0010030B106F4807018B1206C40F06A
:104010000100206405F0040030B107F0010018B180
:10402000206C40F00200206405F0020030B107F07F
:10403000010018B1206C40F00400206405F0080075
:1040400048B106F0200010B907F0010018B1206C4B
:1040500040F008002064206C68B305F0200028B10F
:1040600006F0200010B1204602F007F820684069F1
:10407000C0F3801A206C00F0080010B9BAF1000FEC
:1040800022D0204601F0CEFF2068406900F04000B9
:10409000B0B12068406920F0400021684861A06B01
:1040A00050B15648A16B4863A06BFEF7CDF910B133
:1040B000A06B416B88470CE02046FFF779FF08E0D2
:1040C0002046FFF775FF04E02046FFF771FF002050
:1040D000206489E7FFE7206B012878D105F0100004
:1040E000002874D006F01000002870D000BF002017
:1040F000009020680068009020684068009000BF31
:1041000000BF2068406900F04000C0B3A06B0068A9
:1041100040681FFA80F8B8F1000F2FD0A08D4045FD
:104120002CDDA4F82E80A06B806920281FD0206889
:10413000C06820F480702168C8602068406920F061
:104140000100216848612068406920F04000216832
:104150004861202084F83E00002020632068C06869
:1041600020F010002168C860A06BFEF741F9A08D17
:10417000E28D801A81B22046FFF719FF34E7FFE78E
:10418000A08DE18D401A1FFA80F8E08DE8B1B8F1FA
:10419000000F1AD02068C06820F490702168C860B1
:1041A0002068406920F0010021684861202084F8DF
:1041B0003E00002020632068C06820F010002168C5
:1041C000C86041462046FFF7F2FE0DE7FFE705F025
:1041D000800030B106F0800018B1204602F061F88E
:1041E00002E705F0400030B106F0400018B120466B
:1041F00001F033FFF8E600BFF6E6000011600008AA
:1042000010B504460CB9012010BDA06900B100E052
:1042100000BF94F83D0028B9002084F83C002046F7
:1042200000F028F8242084F83D002068C06820F4BD
:1042300000502168C860204601F092FF20680069A4
:1042400020F49040216808612068406920F02A002D
:10425000216848612068C06840F400502168C86047
:1042600000202064202084F83D0084F83E000020D7
:10427000CAE7000010B586B0044600200290039003
:10428000049005901E492068884236D100BF1D4821
:10429000806940F480401B4988610846806900F4C9
:1042A0008040019000BF00BF00BF0846806940F019
:1042B000040088610846806900F00400019000BF96
:1042C00000BF48150290022003900320059002A928
:1042D0000D48FEF74FF94FF48060029000200390E4
:1042E000049002A90848FEF745F90022052125207F
:1042F000FEF7DAFE2520FEF7C7FE06B010BD00006F
:1043000000380140001002400008014070B504462A
:104310000D46164694F83E00202816D105B10EB978
:10432000012070BD00BF94F83C00012801D102209B
:10433000F7E7012084F83C0000BF002020633246EC
:104340002946204601F08AFFEBE70220E9E700005A
:1043500010B504460F4800780A2809D100200E49FC
:104360000E4A127888540E48006802F027FB0AE0D3
:10437000084800780849094A1278885407480078A4
:10438000401C06490870012202490648FFF7BEFF9B
:1043900010BD000034000020EC0100203600002099
:1043A00028000020A80100202DE9F84F04460E4601
:1043B000174699464FF0000A94F83D0020285AD13C
:1043C00006B117B90120BDE8F88F00BF94F83C0092
:1043D000012801D10220F6E7012084F83C0000BF4B
:1043E00000202064212084F83D00FEF761FA824617
:1043F000A784E784A068B0F5805F04D1206910B974
:104400000025B04602E035464FF0000800BF00200E
:1044100084F83C0000BF1BE0534600228021204668
:10442000CDF8009001F06DFF08B10320CBE745B94E
:10443000B8F80000C0F308002168486008F10208DD
:1044400003E02878216848606D1CE08C401EE08401
:10445000E08C0028E0D15346002240212046CDF8D0
:10446000009001F04EFF08B10320ACE7202084F853
:104470003D000020A7E70220A5E7704700BFFEE748
:1044800010B50248FEF71CFA10BD00000C01002018
:1044900010B50248FEF784FA10BD00000C010020A0
:1044A000C16AB1F52A0F02D10121C16205E0C16ADA
:1044B000B1F12A4F01D10821C1627047F8B5054614
:1044C000002000906C6A94F83D603948006819211A
:1044D000B0FBF1F04FF47A71B0FBF1F0C0EBC0002B
:1044E00000EB8000009000BF009820B9206C40F0E5
:1044F0002000206409E00098401E009020680068B9
:1045000000F40070B0F5007FEED000BF606B10B11A
:104510000020616B8862A06B10B10020A16B8862E3
:104520002068006820F480602168086000206085B1
:10453000606B10B10020616B4863A06B10B100206C
:10454000A16B48632068006820F0010021680860C2
:1045500094F83D0060280AD1202084F83D00002016
:1045600084F83E0020642046FEF7A8F91EE006F01D
:104570002800282811D12068006840F00100216837
:1045800008602068006840F48060216808600020AE
:104590002063282084F83D0005E0202084F83D00B9
:1045A000002084F83E002046FEF7E7FAF8BD000040
:1045B000600000202DE9F041044694F83D6094F835
:1045C0003E70102F01D0402F07D1222E05D1206838
:1045D000006820F400602168086006F028002828A0
:1045E00005D100202063282084F83D0010E02068D9
:1045F000406800F40060B0F5006F07D0602E05D071
:10460000202084F83D00002084F83E000020206334
:104610002068406800F40060B0F5006F40D1206869
:10462000406820F4006021684860606B90F82100C9
:10463000012814D04848616B4863606BFDF704FFA4
:1046400000285BD02068006820F001002168086025
:10465000202084F83D00606B416B88474EE03E4867
:10466000A16B4863A06BFDF7EFFE002846D02068E1
:104670004069C0F3801030B120680069616A087039
:10468000606A401C60622068006820F001002168B8
:104690000860202084F83D00A06B416B88472DE026
:1046A00094F83D0060281AD1202084F83D000020B5
:1046B000206420684069C0F3801030B12068006930
:1046C000616A0870606A401C60622068006820F0BF
:1046D0000100216808602046FEF7F0F80EE020682F
:1046E0004069C0F3801030B120680069616A0870C9
:1046F000606A401C60622046FEF73FFA256C05F0B8
:10470000010058B905F00200022807D005F00400A6
:10471000042803D005F00800082805D12068406867
:1047200020F4E0602168486094F83D60206C00F05F
:10473000040004280ED1282E0CD10848E062002085
:104740002063202084F83D00002084F83E002046AD
:10475000FEF7FCFABDE8F081BD4400080000FFFF51
:10476000014608684069C0F38020B0B16FF48060F2
:104770000A68506100200863202081F83D00002075
:1047800081F83E00086C40F00400086400BF00207F
:1047900081F83C0000BF012070470020FCE770B5A5
:1047A0000446E56A608D042810D12068406820F432
:1047B00080602168486020680069616A0870606AEA
:1047C000401C6062608D401E60857AE0608D032829
:1047D0001AD12068406820F4806021684860042D68
:1047E00007D0022D05D02068006820F48060216881
:1047F000086020680069616A0870606A401C606235
:10480000608D401E60855CE0608D02284FD1012DD7
:1048100001D0102D06D12068006820F48060216846
:10482000086012E0042D01D0022D06D12068006836
:1048300040F480602168086007E0102D05D02068F2
:10484000006840F400702168086020680069616AAF
:104850000870606A401C6062608D401E6085206840
:104860000069616A0870606A401C6062608D401E69
:1048700060852068406820F44070216848602020EE
:1048800084F83D0094F83E00402807D1002084F8C9
:104890003E0020632046FEF715FB12E0002084F85E
:1048A0003E00122020632046FEF751FA09E02068FE
:1048B0000069616A0870606A401C6062608D401E19
:1048C000608570BD70B5044694F83D00222869D11A
:1048D000658D032D13D920680069616A0870606ACC
:1048E000401C6062608D401E6085608D032858D139
:1048F0002068406820F480602168486051E0E06AE8
:1049000002284ED0012D01D0002D4AD1204600F0C2
:10491000EDFD68BB2068006820F4806021680860B5
:104920002068406820F4E0602168486020680069E1
:10493000616A0870606A401C6062608D401E60851C
:10494000202084F83D0094F83E00402807D1002044
:1049500084F83E0020632046FEF7B4FA21E00020F0
:1049600084F83E00122020632046FEF7F0F918E09C
:104970002068406820F4E060216848602068006991
:10498000616A0870606A401C6062608D401E6085CC
:10499000202084F83D00002084F83E002046FEF7E9
:1049A000ECF800BF70BD00002DE9F84304460D4649
:1049B00017469846E66A082E04D0012E02D016F556
:1049C000803F06D12068006840F48070216808604C
:1049D00008E0206B122805D12068006840F4807040
:1049E000216808603B4600224FF001112046CDF8B7
:1049F000008000F0D5FC60B12068006800F4807091
:104A0000B0F5807F02D14FF4007020640320BDE830
:104A1000F8832069B0F5804F04D105F0FE002168CD
:104A2000086112E005F44070F02141EAE0102168CD
:104A3000086143463A460B49204600F0F4FC08B1B1
:104A40000120E4E7E8B22168086143463A46054997
:104A5000891F204600F0E7FC08B10120D7E70020BD
:104A6000D5E700000800010070B50446E56A94F837
:104A70003D00212847D1608D50B1606A00782168DF
:104A80000861606A401C6062608D401E60853AE08B
:104A9000082D16D0202D14D015F5803F11D0206898
:104AA000406820F4E0602168486011202063002005
:104AB00084F83E00202084F83D002046FEF748F9A7
:104AC00021E02068406820F4E060216848602068A8
:104AD000006840F4007021680860002020632020F6
:104AE00084F83D0094F83E00402806D1002084F868
:104AF0003E002046FEF7E7F905E0002084F83E007E
:104B00002046FEF725F970BD2DE9F041044694F8E2
:104B10003D5094F83E70E66A208DB0BB212D3CD10B
:104B2000082E16D0202E14D016F5803F11D0206804
:104B3000406820F4E0602168486011202063002074
:104B400084F83E00202084F83D002046FEF700F95E
:104B500044E02068406820F4E060216848602068F4
:104B6000006840F400702168086000202063202065
:104B700084F83D0094F83E00402807D1002084F8D6
:104B80003E002046FEF79FF928E006E0002084F86A
:104B90003E002046FEF7DCF820E0212D03D0402F18
:104BA0001CD1222D1AD1608D30B92068406820F4C4
:104BB00080602168486011E094F83E00402803D1ED
:104BC000204600F0B1F909E0606A007821680861C8
:104BD000606A401C6062608D401E6085BDE8F081A7
:104BE000416CC9B202681161416B11B1416B896AB4
:104BF00021B9816B41B1816B896A29B1016849682A
:104C000041F4006102685160704738B590F83E2069
:104C1000C16A036B90F83D40222C73D1046D64B9D6
:104C2000402A0AD100BF00240094046864690094FB
:104C30000468A469009400BF26E1046DC4B9046946
:104C4000B4F5404F14D100BF002400940468646997
:104C500000940468A469009400BF00BF046824683D
:104C600044F4807405682C60046D641C04650BE1D9
:104C7000448D8CB900BF00240094046864690094DA
:104C80000468A469009400BF00BF0468246844F469
:104C9000007405682C60E9E0448D012C72D111F597
:104CA000803F30D10468246824F4806405682C6057
:104CB0000468646804F40064B4F5006F10D10468FB
:104CC000246824F4806405682C6000BF00240094EC
:104CD0000468646900940468A469009400BFC5E096
:104CE00000BF002400940468646900940468A46907
:104CF000009400BF00BF0468246844F40074056891
:104D00002C60B3E0B5E0082923D0202921D0122B54
:104D100001D101291DD104290AD0022908D0102966
:104D200006D00468246824F4806405682C6005E0DB
:104D30000468246844F4806405682C6000BF002483
:104D400000940468646900940468A469009400BF36
:104D50008CE00468246824F4806405682C6000BF3B
:104D6000002400940468646900940468A4690094B1
:104D700000BF00BF0468246844F4007405682C6018
:104D800074E0FFE7448D022C47D104291BD002298F
:104D900019D0102917D00468246844F40064056809
:104DA0002C6000BF002400940468646900940468C7
:104DB000A469009400BF00BF0468246824F48064E0
:104DC00005682C6010E00468246844F48064056879
:104DD0002C6000BF00240094046864690094046897
:104DE000A469009400BF00BF0468646804F4006410
:104DF000B4F5006F3AD111F5803F07D0012905D0F5
:104E0000082903D0102901D020292FD10468646813
:104E100044F4805405686C6028E00468246844F415
:104E2000806405682C600468646804F40064B4F568
:104E3000006F10D111F5803F07D0012905D0082956
:104E400003D0102901D0202905D10468646844F4F6
:104E5000805405686C6000BF002400940468646995
:104E600000940468A469009400BF00BF0024046596
:104E70000AE000BF00240094046864690094046898
:104E8000A469009400BF00BF38BD90F83E104029CF
:104E90000ED1016D29B9416C01F0FE01026811616A
:104EA00041E0416CC9B241F00101026811613AE090
:104EB0000169B1F5804F20D190F83D10212905D12D
:104EC000416C01F0FE010268116105E0416CC9B25C
:104ED00041F0010102681161416B11B1416B896AB6
:104EE00021B9816BF9B1816B896AE1B101684968C7
:104EF00041F400610268516015E0016D41B9416CF7
:104F000001F44071F02242EAE111026811610AE005
:104F1000016D012907D1416C01F44071F12242EA8F
:104F2000E11102681161704770B5044694F83D5074
:104F3000206D98B9E06C012807D1A06CC0B221683F
:104F40000861206D801C20654CE0A06CC0F3072038
:104F500021680861206D401C206543E0206D012818
:104F600007D1A06CC0B221680861206D401C20658B
:104F700038E0206D022835D1222D09D12068006843
:104F800040F4807021680860206D401C206529E095
:104F9000608D60B1212D0AD1606A007821680861B6
:104FA000606A401C6062608D401E60851AE0608D02
:104FB000C0B9212D16D12068406820F4E060216836
:104FC00048602068006840F4007021680860002094
:104FD0002063202084F83D00002084F83E00204615
:104FE000FDF771FF70BD418D49B101680969426AE1
:104FF0001170416A491C4162418D491E41857047CB
:1050000070B5044694F83D50608DD8B120680069B1
:10501000616A0870606A401C6062608D401E608535
:10502000608D78B92A2D0DD12068406820F4806009
:105030002168486022202063282084F83D00204613
:10504000FDF78CFF70BD418D49B1416A0978026856
:105050001161416A491C4162418D491E4185704779
:1050600070B5044694F83D50608DD8B1606A007800
:1050700021680861606A401C6062608D401E608526
:10508000608D78B9292D0DD12068406820F48060AA
:105090002168486021202063282084F83D002046B4
:1050A000FDF75DFF70BDF8B504460D46002794F886
:1050B0003D0000F0280028281CD12068406820F41A
:1050C000806021684860C5F3800000B90127C5F3FE
:1050D000C01010B9A08986B201E0208B86B200BF53
:1050E000002084F83C0000BF324639462046FDF7D8
:1050F000E6FB0FE000BF00200090206840690090B0
:1051000020688069009000BF00BF00BF002084F8C5
:105110003C0000BFF8BD000070B5044694F83D5057
:10512000E66A082E01D0202E1FD1282D1DD121483E
:10513000E0622068406820F4E060216848606FF415
:105140008060216848612068006820F480602168E0
:10515000086000202063202084F83D00002084F8AF
:105160003E002046FDF7F2FD23E0212D1DD1114820
:10517000E06221202063202084F83D00002084F894
:105180003E002068406820F4E060216848606FF4C9
:105190008060216848612068006820F48060216890
:1051A00008602046FDF7DBFE03E06FF480602168B5
:1051B000486170BD0000FFFF38B5044694F83D50CB
:1051C0002068406820F4E0602168486000BF00204B
:1051D00000902068406900902068006840F001005D
:1051E0002168086000BF00BF2068006820F480606C
:1051F000216808602068406800F40060B0F5006F26
:1052000042D1222D01D02A2D1FD1A06B0068406809
:105210006085608D18B1206C40F004002064206827
:10522000406820F4006021684860A06BFDF764F9D5
:10523000012829D04148A16B4863A06BFDF704F910
:1052400010B3A06B416B88471EE0606B006840683C
:105250006085608D18B1206C40F0040020642068E7
:10526000406820F4006021684860606BFDF744F9F5
:10527000012809D03148616B4863606BFDF7E4F8A1
:1052800010B1606B416B8847608D18B3206840692E
:10529000C0F3800048B120680069616A0870606AE4
:1052A000401C6062608D401E608520684069C0F3CC
:1052B000801048B120680069616A0870606A401C0B
:1052C0006062608D401E6085608D18B1206C40F07A
:1052D00004002064206C18B12046FFF76BF92BE026
:1052E0002A2D07D100202063282084F83D00204685
:1052F000FDF734FE94F83D0028280DD11048E062F7
:1053000000202063202084F83D00002084F83E0027
:105310002046FDF71BFD0FE0206B222801D0222D37
:105320000AD100202063202084F83D00002084F86A
:105330003E002046FDF712FE38BD0000BD440008C7
:105340000000FFFF70B504460D46164620E02046DB
:10535000FFF706FA08B1012070BD681CC0B1FDF767
:10536000A7FA801BA84200D895B90020206320200E
:1053700084F83D00002084F83E00206C40F02000BE
:10538000206400BF002084F83C0000BF0120E3E758
:1053900020684069C0F380000028D8D00020DBE7F7
:1053A0002DE9F04104460D4617461E46DDF81880EB
:1053B0001CE0701CD0B1FDF77BFAA0EB0800B042F6
:1053C00000D89EB900202063202084F83D000020F2
:1053D00084F83E00206C40F02000206400BF0020D4
:1053E00084F83C0000BF0120BDE8F081C5F3074010
:1053F00001280AD120684069A9B20840A9B28842B0
:1054000001D101200BE0002009E020688069A9B2E9
:105410000840A9B2884201D1012000E00020B84232
:10542000C7D00020E0E72DE9F04104460D461646BE
:105430001F463DE020684069C0F38020E8B1206845
:10544000006840F40070216808606FF48060216893
:10545000486100202063202084F83D00002084F86B
:105460003E00206C40F00400206400BF002084F85F
:105470003C0000BF0120BDE8F081701CC0B1FDF709
:1054800017FAC01BB04200D896B900202063202034
:1054900084F83D00002084F83E00206C40F020009D
:1054A000206400BF002084F83C0000BF0120E2E738
:1054B000C5F3074001280AD120684069A9B2084015
:1054C000A9B2884201D101200BE0002009E0206848
:1054D0008069A9B20840A9B2884201D1012000E048
:1054E00000200028A6D00020C5E7000008B501462E
:1054F00000200090104800681922B0FBF2F04FF431
:105500007A72B0FBF2F000EB8000009000BF0098D0
:10551000401E0090009828B9086C40F020000864F4
:10552000012008BD0868006800F40070B0F5007F35
:10553000EDD00020F5E700006000002070B50446C3
:105540000D46164620E02046FFF70AF908B1012073
:1055500070BD681CC0B1FDF7ABF9801BA84200D834
:1055600095B900202063202084F83D00002084F8B5
:105570003E00206C40F02000206400BF002084F832
:105580003C0000BF0120E3E720684069C0F3C01081
:105590000028D8D00020DBE70EB500200090019055
:1055A000029012481249086000211148816001737D
:1055B00001754FF46021C16100200D49486001214F
:1055C0000B480161FCF7B8FC08B1FCF7BAFA0020FF
:1055D0000090012001900020029069460448FCF7E9
:1055E00065FB08B1FCF7ADFA0EBD000000240140D8
:1055F000DC00002000B585B00020019002900390EF
:10560000049000BF2D48806940F010002B4988614C
:105610000846806900F01000009000BF00BF00BF86
:105620000846806940F0200088610846806900F0E3
:105630002000009000BF00BF00BF0846806940F016
:10564000040088610846806900F00400009000BFF3
:1056500000BF00BF0846806940F008008861084626
:10566000806900F00800009000BF00BF00224FF4E6
:1056700000411348FDF716F94FF400400190012056
:105680000290002003900220049001A90C48FCF72E
:1056900071FF082001900B4802900120039001A99E
:1056A0000948FCF767FF002206210920FDF7FCFCF2
:1056B0000920FDF7E9FC05B000BD00000010024024
:1056C00000100140000021100008014010B50B48F7
:1056D0000B4908600B484860002109488160C1609F
:1056E0004FF480410161002141618161C16101622A
:1056F000FDF744FA08B1FCF724FA10BD005400404D
:105700000C010020A086010000B587B000200390A6
:10571000049005900690019002904FF0804014494B
:105720000860472048600021114881604FF6FF71F2
:10573000C160002101618161FEF7FAF908B1FCF74F
:1057400000FA4FF48050039003A90948FEF7CFFAFE
:1057500008B1FCF7F6F900200190029001A9044875
:10576000FEF7A4F908B1FCF7ECF907B000BD0000A2
:105770006001002010B50B480B4908604FF4E13080
:105780004860002108488160C16001610C214161CD
:1057900000218161C161FEF733FD08B1FCF7D1F949
:1057A00010BD000000380140A801002000BFFEE746
:1057B00000BFFEE708B508490968C9084FF47A72C6
:1057C000B1FBF2F14143009100BF00BF00994A1EB6
:1057D00000920029F9D108BD6000002000BF00F050
:1057E000ABFB41F2883000F077FFF8E700BF00F034
:1057F000B9FB41F2707000F06FFFF8E700BF00F0F6
:10580000CBFB40F6B83000F067FFF8E70EB500BFFD
:10581000FDF74EF8264908602648008804F080F815
:10582000054625480168284604F08EF804D223A1D5
:105830002648FAF78BFE03E025A12448FAF786FEF6
:105840001D48006804F014F805462048CDE90051D1
:105850000290174822A102682C48FAF713FD04466B
:105860002B48007888B94FF0FF312A48006800F0D3
:10587000EDFFA2B24FF4FA7324492748FEF794FDD6
:105880002448006801F09AF80CE04FF0FF312348FB
:10589000006800F0DBFFA2B24FF4FA731B491E4808
:1058A000FEF782FD1E48008800F016FFB0E70000FA
:1058B0003C0000204A0000204000002041626F763A
:1058C00065207468726573686F6C64005002002014
:1058D00042656C6F77207468726573686F6C6400E2
:1058E0000A5B256C645D20092054454D503A202503
:1058F000342E31662A435F5F5F4E6F746966696359
:105900006174696F6E3A2025732000001E0200202A
:105910003A00002024000020A801002030000020D0
:105920003800002008B500BFFCF7C2FF214908601D
:105930002148008821490988884204DD20A12448A3
:10594000FAF704FE03E023A12148FAF7FFFD2048FF
:10595000009019480388174822A102682C48FAF7DA
:1059600091FC04462B48007888B94FF0FF312A4853
:10597000006800F06BFFA2B24FF4FA732449274885
:10598000FEF712FD2448006801F018F80CE04FF013
:10599000FF312348006800F059FFA2B24FF4FA73B8
:1059A0001B491E48FEF700FD1E48008800F094FECB
:1059B000BAE700003C00002044000020480000201E
:1059C00041626F7665207468726573686F6C6400FD
:1059D0005002002042656C6F7720746872657368AE
:1059E0006F6C64000A5B256C645D20092048554D8E
:1059F000203A202534642525205F5F5F4E6F74694F
:105A00006669636174696F6E3A2025730A0000004D
:105A10001E0200203A00002024000020A8010020DF
:105A2000300000203800002008B500BFFCF740FF20
:105A3000214908602148008821490988884204DDFD
:105A400020A12448FAF782FD03E023A12148FAF7B8
:105A50007DFD2048009019480388174822A102685C
:105A60002C48FAF70FFC04462B48007888B94FF011
:105A7000FF312A48006800F0E9FEA2B24FF4FA7341
:105A800024492748FEF790FC2448006800F096FF60
:105A90000CE04FF0FF312348006800F0D7FEA2B2BF
:105AA0004FF4FA731B491E48FEF77EFC1E4800881F
:105AB00000F012FEBAE700003C0000204600002083
:105AC0004C00002041626F766520746872657368CF
:105AD0006F6C64005002002042656C6F7720746820
